S0120000536572766F4D6F746F722E73726563F2
S11300000C942A000C9434000C9434000C943400A6
S11300100C9434000C9434000C9434000C9434008C
S11300200C9434000C9434000C9434000C9434007C
S11300300C9434000C9434000C9434000C9434006C
S11300400C9434000C9434000C9434000C9434005C
S11300500C94340011241FBECFE5D8E0DEBFCDBF21
S11300600E94AC000C9437010C940000843008F01A
S113007072C0683008F06FC04130A1F5813089F05A
S113008028F08230C9F0833011F108952AB381E059
S113009090E002C0880F991F6A95E2F7822B8ABB11
S11300A0089527B381E090E002C0880F991F6A95F4
S11300B0E2F7822B87BB089524B381E090E002C06D
S11300C0880F991F6A95E2F7822B84BB089521B3A8
S11300D081E090E002C0880F991F6A95E2F7822BB5
S11300E081BB0895411137C0813091F028F08230EE
S11300F0D9F0833029F108952AB381E090E002C059
S1130100880F991F6A95E2F7809582238ABB089528
S113011027B381E090E002C0880F991F6A95E2F747
S11301208095822387BB089524B381E090E002C0C8
S1130130880F991F6A95E2F78095822384BB0895FE
S113014021B381E090E002C0880F991F6A95E2F71D
S11301508095822381BB08950E94D30080E00E9491
S1130160F5002FEF8EE994E2215080409040E1F7B2
S113017000C000008AE50E94F5002FEF8EE994E2AA
S1130180215080409040E1F700C0000084EB0E94C1
S1130190F5002FEF8EE994E2215080409040E1F782
S11301A000C00000DBCF41E065E083E00E94360040
S11301B08FB580688FBD8FB58E7F8FBD8FB5826000
S11301C08FBD8EB588608EBD8EB580618EBD8EB5B7
S11301D08E7F8EBD8EB582608EBD8EB58B7F8EBDBB
S11301E080E29EE497BD86BD0895282F30E0A8EEF6
S11301F0B3E00E94280124EB30E040E050E00E948C
S1130200060128513C4F3BBD2ABD0895A1E21A2E98
S1130210AA1BBB1BFD010DC0AA1FBB1FEE1FFF1FA6
S1130220A217B307E407F50720F0A21BB30BE40BF6
S1130230F50B661F771F881F991F1A9469F760953D
S11302407095809590959B01AC01BD01CF010895F7
S1130250A29FB001B39FC001A39F700D811D112403
S1130260911DB29F700D811D1124911D0895F89464
S1050270FFCFBA
S9030000FC
